:060000000A128A110C280F
:10000800FE00030EF0000A08F1000A128A11F02D12
:100018000A128A116D2D0130F5210A128A110D304C
:10002800F500FB30F400F40B1728F50B17281C28F3
:100038000800F8009430F5210A128A110A30F200FB
:100048002A220A128A117B210A128A11303E75214E
:100058000A128A110A30F2002A220A128A119621FB
:100068000A128A11303E75210A128A112F30752121
:100078000A128A110A30F20024220A128A117B21FC
:100088000A128A11303E75210A128A110A30F200CA
:1000980024220A128A1196210A128A11303E7521E9
:1000A8000A128A112F3075210A128A110A30F200B9
:1000B8001E220A128A117B210A128A11303E7521EA
:1000C8000A128A110A30F2001E220A128A11962197
:1000D8000A128A11303E75210A128A1120307521C0
:1000E8000A128A117808840083130008013A031958
:1000F8009128033A03199628013A03199B28073ACD
:100108000319A028013A0319A528033A0319AA28B4
:10011800013A0319AF28B42808004630F4008030AB
:10012800F500B2293E30F4008030F500B2293A30AB
:10013800F4008030F500B2295230F4008030F50028
:10014800B2294230F4008030F500B2294E30F40074
:100158008030F500B2294A30F4008030F500B22929
:100168003630F4008030F500B229C4003C30C300BA
:10017800C030F5210A128A110A30F20007220A1249
:100188008A117B210A128A11303EBC000A30F20023
:100198004408023E8400000896210A128A11303E63
:1001A800BD000A30F2004408023E840000087B21AA
:1001B8000A128A11303E75210A128A110A30F20099
:1001C80007220A128A1196210A128A11303E7521D5
:1001D8000A128A113A3075210A128A110A30F2007D
:1001E8000F220A128A117B210A128A11303EBE00A0
:1001F8000A30F2004408013E8400000896210A12E1
:100208008A11303EBF000A30F2004408013E8400E3
:1002180000087B210A128A11303E75210A128A11C0
:100228000A30F2000F220A128A1196210A128A1144
:10023800303E75210A128A113A3075210A128A1144
:100248000A30F20017220A128A117B210A128A1137
:10025800303EC0000A30F2004408840000089621AD
:100268000A128A11303EC1000A30C201F200440865
:10027800840000087B210A128A11303E75210A1277
:100288008A110A30F20017220A128A1196210A12DC
:100298008A11303E75210A128A11203075210A12FE
:1002A8008A1166295630F4008030F500B2210A120E
:1002B8008A1173295930F4008030F500B2210A12EE
:1002C8008A11732930224408033E840083130008EE
:1002D800003A03195629013A03195E29732943087C
:1002E8000800F3003022871473088800FB29F30004
:1002F800F501720803199429F401F40AF21B8729FD
:100308000310F20D81290310F50D72087302031C06
:1003180091297208F30275140310F20CF40B872963
:1003280075080800F4000830F500F6017408F300B9
:1003380007300310F30CFF3E0310031D9E29760DB2
:100348007304F6000310F40D72087602031CAE293C
:100358007208F602F50B9A2976080800F601F701EB
:1003680076087407840075080318750A3022FF00A0
:100378000A128A1102250A128A1100380319080084
:1003880076087407840075080318750AFF000A12B6
:100398008A1102250A128A1175210A128A11F60A8F
:1003A8000319F70AB42983120711871088018316E5
:1003B8000711871088013030F5210A128A11383068
:1003C800F5210A128A110C30F5210A128A1101301E
:1003D800F5210A128A110630F5210A128A11803095
:1003E800F529F3003022871073088800FB29533061
:1003F8000715F200F20BFE29302253300711F200E4
:10040800F20B042A0800831203134408023E8400F6
:10041800831300080800831203134408013E840074
:10042800831300080800831203134408840083130D
:10043800000808007808033E8400831300080800B9
:100448007808023E84008313000808007808013EFB
:10045800840083130008080083120313080045086A
:1004680025230A128A110630C6003C230A128A1173
:10047800C60B392A42082D230A128A110630352361
:100488000A128A11031D432A003007230A128A110F
:1004980092220A128A117308D0007208CF00013024
:1004A8005002003003194F02031C7C2A45082523FB
:1004B8000A128A110430C6003C230A128A11C60B9C
:1004C800602A42082D230A128A11043035230A12A1
:1004D8008A11031D6A2A003007230A128A11922200
:1004E8000A128A117308D0007208CF0083161815F3
:1004F800013083125002003003194F02031808001C
:100508004F088316990018128312981783168717B5
:10051800071783121816831698160800BD01F51FD1
:10052800A22AF209F309F409F509F20A0319F30AF0
:100538000319F40A0319F50ABD01BD0AF91FB12A06
:10054800F609F709F809F909F60A0319F70A031968
:10055800F80A0319F90A0130BD06BE01BF01C0013E
:10056800C10175087404730472040319F02ABC01EC
:10057800BC0AF51BC52A0310F20DF30DF40DF50D99
:10058800BC2A0310BE0DBF0DC00DC10D7508790240
:10059800031DD82A74087802031DD82A7308770225
:1005A800031DD82A72087602031CEA2A7208F6028A
:1005B8007308031C730FF7027408031C740FF80206
:1005C8007508031C750FF9023E140310F50CF40CA2
:1005D800F30CF20CBC0BC52A3D080319FE2ABE0910
:1005E800BF09C009C109BE0A0319BF0A0319C00A15
:1005F8000319C10A4108F5004008F4003F08F30058
:100608003E08F2000800CB002D30CC003130CD0080
:100618000130CE004708CB024808031C480FCC0223
:100628004908031C490FCD024A08031C4A0FCE0291
:100638004E08F9004D08F8004C08F7004B08F60082
:100648000800F5004408F4004308F3004208F200EB
:100658000800C7004308C8004408C9004508CA0084
:1006680008000310C70DC80DC90DCA0DFF3E0800CC
:100678000310F20DF30DF40DF50D08005930F300D9
:100688000430F4000330F501BE230A128A115A0817
:100698003A240A128A11B0230A128A11FA007B0836
:1006A8000F397A07DA0033240A128A11B0230A12A2
:1006B8008A11FA007B080F397A07DB005C083A24B4
:1006C8000A128A11B023FA007B080F397A07DC0076
:1006D80059345930F3000330F4000030F501BE23DB
:1006E8000A128A115908FB000A30F2007B0E0F39F2
:1006F8000739B0230A128A11FA007B080F397A07E2
:10070800D9005A083A240A128A11B0230A128A1107
:10071800FA007B080F397A07DA005B1FA42BDB1E6F
:10072800982BDC01DC0A992BDC0133240A128A118C
:100738000139B023FA007B080F397A07DB005934F6
:1007480033240A128A11B023FA007B080F397A077A
:10075800DB000230DC005934F400F301720874182D
:10076800F3070310F20D0310F40CF408031DB22B69
:1007780073080800F7000D240A128A11D030F723F5
:100788000A128A117708F7230A128A1115240A1205
:100798008A11D130F7230A128A11730884000524BC
:1007A8000A128A1183138000F801F80AF901750802
:1007B8007902031DE12B740878020318F32B1B241C
:1007C8000A128A1178087307F6007608840005244F
:1007D8000A128A118000F80A0319F90ADB2B2B2464
:1007E8000A128A11242CF2007208831293008C1DBD
:1007F800FB2B8C118316111B032C03100800031408
:1008080008008316911583128C1D072C8C11130870
:10081800080083160313111483128C1D102C8C11DD
:100828000800911483128C1D162C8C110800831655
:1008380003139112111683128C1D1F2C8C110800A2
:100848008316111583128C1D262C8C110800831613
:100858009116111683128C1D2E2C8C1108005B0822
:10086800FB000A30F2007B0E0F390800FB000A304B
:10087800F2007B0E0F390800FF30831686000A123B
:100888008A11D7210A128A110A128A11D7250A1247
:100898008A110A128A110F200A128A1127308B1521
:1008A8000B108B17F400F5010A128A11B2210A12F3
:1008B8008A11D4300A128A11F5210A128A11831278
:1008C8000313D601D701831203135608203E840070
:1008D800831300080A128A1175210A128A118312D9
:1008E8000313D60A0319D70A5708803AFF00803045
:1008F8007F02031D812C06305602031C672C0A1246
:100908008A116D230A128A110A128A11B9200A1251
:100918008A110A128A1142230A128A110A128A11AA
:100928001D200A128A115408303ED800DA300A1203
:100938008A11F5210A128A118312031358080A1220
:100948008A1175210A128A11831203135408053A71
:100958005504031D832C0030D401D501C500C40003
:100968002530C3008030C2000A128A1133220A12CD
:100978008A111E300A128A11B1250A128A110D3005
:100988000A128A11CE250A128A110A300A128A110D
:10099800CE250A128A111A30D3005E30D200863072
:1009A800D100D10BD52CD20BD52CD30BD52C640070
:1009B80001300A128A11B1250A128A11831203130F
:1009C80058080A128A11CE250A128A111A300A12F8
:1009D8008A11CE250A128A111A30D3005E30D2004D
:1009E8008630D100D10BF62CD20BF62CD30BF62C7B
:1009F8006400831603139818832CFD2CFF1B0C2D01
:100A080083137F1883170008840A0319FF0A080054
:100A180005308A000408840A8207003443345534B8
:100A2800533454344F344D344534523449344434B7
:100A38002034393434343034303435343534373480
:100A4800343439343734203443344F3455344E3405
:100A5800543420340034413454342B3443344D342A
:100A6800473453343D3422342B3439343134383418
:100A78003434323438343034393439343434363424
:100A88003834223400343F343F343F340034573450
:100A980045344434003454345534453400344634F1
:100AA8005234493400344D344F344E3400345334C6
:100AB80055344E34003453344134543400345434AF
:100AC80048345534003441344D34003450344D34B6
:100AD80000345030FB01D401D501D601D701D8012B
:100AE800D901DA01DB01DC01A0005530A1004C304E
:100AF800A2005330A3004530A4003A30A5002D30A1
:100B0800A601A7003C30A8002A30A9002030AA007E
:100B18004D30AB004530AC005430AD004530AE0030
:100B28005230AF002030B0005330B1005930B2001D
:100B38005330B3005430B4004530B5004D30B600E2
:100B48002030B7002A30B8003E30B9002D30BA0046
:100B5800BB0183010A128A11402CF300F401F5014C
:100B68007408730784000A128A110C250A128A1164
:100B78000038031908007408730784000A128A11E0
:100B88000C250A128A11CE250A128A11F40A0319B1
:100B9800F50AB42DF20083160313981CCF2D7208A2
:100BA8008312990008000D30F400AF30F300C13013
:100BB800F200F20BDD2DF30BDD2DF40BDD2D6400BF
:100BC800831603133130071687159300803094007D
:100BD80028308312940008000B1CF92D831203138C
:100BE800061EF92DD40A0319D50A83120313060821
:100BF8000B1071088A00700E8300FE0E7E0E09002D
:00000001FF
